{
  "address": "0x2DA5B22F1f2B1939Fd825565a6479625242c093d",
  "abi": [
    {
      "anonymous": false,
      "inputs": [
        {
          "indexed": false,
          "internalType": "address",
          "name": "funder",
          "type": "address"
        },
        {
          "indexed": false,
          "internalType": "uint256",
          "name": "amount",
          "type": "uint256"
        }
      ],
      "name": "Funding",
      "type": "event"
    },
    {
      "anonymous": false,
      "inputs": [
        {
          "indexed": false,
          "internalType": "address",
          "name": "creator",
          "type": "address"
        },
        {
          "indexed": false,
          "internalType": "address",
          "name": "receiver",
          "type": "address"
        },
        {
          "indexed": false,
          "internalType": "uint256",
          "name": "goal",
          "type": "uint256"
        }
      ],
      "name": "NewCrowdFunding",
      "type": "event"
    },
    {
      "anonymous": false,
      "inputs": [
        {
          "indexed": false,
          "internalType": "address",
          "name": "caller",
          "type": "address"
        },
        {
          "indexed": false,
          "internalType": "uint256",
          "name": "crowdFundingId",
          "type": "uint256"
        },
        {
          "indexed": false,
          "internalType": "address",
          "name": "receiver",
          "type": "address"
        }
      ],
      "name": "Withdraw",
      "type": "event"
    },
    {
      "inputs": [
        {
          "internalType": "uint256",
          "name": "crowdFundingId",
          "type": "uint256"
        }
      ],
      "name": "funding",
      "outputs": [],
      "stateMutability": "payable",
      "type": "function"
    },
    {
      "inputs": [
        {
          "internalType": "uint256",
          "name": "crowdFundingId",
          "type": "uint256"
        }
      ],
      "name": "getCrowdFundInfoById",
      "outputs": [
        {
          "components": [
            {
              "internalType": "address payable",
              "name": "receiver",
              "type": "address"
            },
            {
              "internalType": "uint256",
              "name": "fundingGoal",
              "type": "uint256"
            },
            {
              "internalType": "uint256",
              "name": "fundNumers",
              "type": "uint256"
            },
            {
              "internalType": "uint256",
              "name": "totalAmounts",
              "type": "uint256"
            }
          ],
          "internalType": "struct CrowdFunding.CrowdFund",
          "name": "info",
          "type": "tuple"
        }
      ],
      "stateMutability": "view",
      "type": "function"
    },
    {
      "inputs": [
        {
          "internalType": "uint256",
          "name": "crowdFundingId",
          "type": "uint256"
        },
        {
          "internalType": "address",
          "name": "funder",
          "type": "address"
        }
      ],
      "name": "isParticipate",
      "outputs": [
        {
          "internalType": "bool",
          "name": "",
          "type": "bool"
        }
      ],
      "stateMutability": "view",
      "type": "function"
    },
    {
      "inputs": [
        {
          "internalType": "address payable",
          "name": "receiver",
          "type": "address"
        },
        {
          "internalType": "uint256",
          "name": "goal",
          "type": "uint256"
        }
      ],
      "name": "newCrowdFunding",
      "outputs": [
        {
          "internalType": "uint256",
          "name": "newCrowdFundingId",
          "type": "uint256"
        }
      ],
      "stateMutability": "nonpayable",
      "type": "function"
    },
    {
      "inputs": [],
      "name": "s_CrowdFundId",
      "outputs": [
        {
          "internalType": "uint256",
          "name": "",
          "type": "uint256"
        }
      ],
      "stateMutability": "view",
      "type": "function"
    },
    {
      "inputs": [
        {
          "internalType": "uint256",
          "name": "crowdFundngId",
          "type": "uint256"
        }
      ],
      "name": "withdrawFunding",
      "outputs": [
        {
          "internalType": "bool",
          "name": "success",
          "type": "bool"
        }
      ],
      "stateMutability": "nonpayable",
      "type": "function"
    }
  ],
  "transactionHash": "0x1af866b40565056cae48648c07ae5de6816516e50aa3d7ff4522aa5599954cec",
  "args": [],
  "numDeployments": 2,
  "solcInputHash": "856e2c0f979fe97d8735a5994a14960e",
  "bytecode": "0x608060405234801561001057600080fd5b50610e53806100206000396000f3fe6080604052600436106100555760003560e01c80633697f0551461005a578063621051441461009757806364b6d6cd146100c2578063728dda19146100ff57806392ca60c11461013c578063f857da2f14610158575b600080fd5b34801561006657600080fd5b50610081600480360381019061007c9190610803565b610195565b60405161008e919061084b565b60405180910390f35b3480156100a357600080fd5b506100ac6102dc565b6040516100b99190610875565b60405180910390f35b3480156100ce57600080fd5b506100e960048036038101906100e49190610803565b6102e2565b6040516100f69190610935565b60405180910390f35b34801561010b57600080fd5b506101266004803603810190610121919061098e565b610383565b604051610133919061084b565b60405180910390f35b61015660048036038101906101519190610803565b6103eb565b005b34801561016457600080fd5b5061017f600480360381019061017a91906109fa565b6106cb565b60405161018c9190610875565b60405180910390f35b60008060016000848152602001908152602001600020905060008160030154905081600101548110156101fd576040517f08c379a00000000000000000000000000000000000000000000000000000000081526004016101f490610abd565b60405180910390fd5b600082600301819055508160000160009054906101000a900473ffffffffffffffffffffffffffffffffffffffff1673ffffffffffffffffffffffffffffffffffffffff166108fc829081150290604051600060405180830381858888f19350505050158015610271573d6000803e3d6000fd5b507f56c54ba9bd38d8fd62012e42c7ee564519b09763c426d331b3661b537ead19b233828460000160009054906101000a900473ffffffffffffffffffffffffffffffffffffffff166040516102c993929190610b4b565b60405180910390a1600192505050919050565b60005481565b6102ea61078a565b600160008381526020019081526020016000206040518060800160405290816000820160009054906101000a900473ffffffffffffffffffffffffffffffffffffffff1673ffffffffffffffffffffffffffffffffffffffff1673ffffffffffffffffffffffffffffffffffffffff16815260200160018201548152602001600282015481526020016003820154815250509050919050565b60006003600084815260200190815260200160002060008373ffffffffffffffffffffffffffffffffffffffff1673ffffffffffffffffffffffffffffffffffffffff16815260200190815260200160002060009054906101000a900460ff16905092915050565b806003600082815260200190815260200160002060003373ffffffffffffffffffffffffffffffffffffffff1673ffffffffffffffffffffffffffffffffffffffff16815260200190815260200160002060009054906101000a900460ff161561048a576040517f08c379a000000000000000000000000000000000000000000000000000000000815260040161048190610bf4565b60405180910390fd5b600034116104cd576040517f08c379a00000000000000000000000000000000000000000000000000000000081526004016104c490610c86565b60405180910390fd5b600054821115610512576040517f08c379a000000000000000000000000000000000000000000000000000000000815260040161050990610cf2565b60405180910390fd5b60016000838152602001908152602001600020600201600081548092919061053990610d41565b9190505550346001600084815260200190815260200160002060030160008282546105649190610d89565b9250508190555060016003600084815260200190815260200160002060003373ffffffffffffffffffffffffffffffffffffffff1673ffffffffffffffffffffffffffffffffffffffff16815260200190815260200160002060006101000a81548160ff0219169083151502179055506002600083815260200190815260200160002060405180604001604052803373ffffffffffffffffffffffffffffffffffffffff16815260200134815250908060018154018082558091505060019003906000526020600020906002020160009091909190915060008201518160000160006101000a81548173ffffffffffffffffffffffffffffffffffffffff021916908373ffffffffffffffffffffffffffffffffffffffff1602179055506020820151816001015550507f1af855f8ecf9e2874e8d95b2f5b91f1afa7cea4cfac27e00fb165ebec0e671af33346040516106bf929190610dbd565b60405180910390a15050565b60008060008154809291906106df90610d41565b9190505590506000600160008381526020019081526020016000209050838160000160006101000a81548173ffffffffffffffffffffffffffffffffffffffff021916908373ffffffffffffffffffffffffffffffffffffffff1602179055508281600101819055507fe134281c063764c4063715b19bf1794fc806bce5b8aed4264a8596f03af5c46033858560405161077b93929190610de6565b60405180910390a15092915050565b6040518060800160405280600073ffffffffffffffffffffffffffffffffffffffff1681526020016000815260200160008152602001600081525090565b600080fd5b6000819050919050565b6107e0816107cd565b81146107eb57600080fd5b50565b6000813590506107fd816107d7565b92915050565b600060208284031215610819576108186107c8565b5b6000610827848285016107ee565b91505092915050565b60008115159050919050565b61084581610830565b82525050565b6000602082019050610860600083018461083c565b92915050565b61086f816107cd565b82525050565b600060208201905061088a6000830184610866565b92915050565b600073ffffffffffffffffffffffffffffffffffffffff82169050919050565b60006108bb82610890565b9050919050565b6108cb816108b0565b82525050565b6108da816107cd565b82525050565b6080820160008201516108f660008501826108c2565b50602082015161090960208501826108d1565b50604082015161091c60408501826108d1565b50606082015161092f60608501826108d1565b50505050565b600060808201905061094a60008301846108e0565b92915050565b600061095b82610890565b9050919050565b61096b81610950565b811461097657600080fd5b50565b60008135905061098881610962565b92915050565b600080604083850312156109a5576109a46107c8565b5b60006109b3858286016107ee565b92505060206109c485828601610979565b9150509250929050565b6109d7816108b0565b81146109e257600080fd5b50565b6000813590506109f4816109ce565b92915050565b60008060408385031215610a1157610a106107c8565b5b6000610a1f858286016109e5565b9250506020610a30858286016107ee565b9150509250929050565b600082825260208201905092915050565b7f43616e206e6f742077697468647261772063617a206e6f74206869742074686560008201527f20476f616c2e2e2e000000000000000000000000000000000000000000000000602082015250565b6000610aa7602883610a3a565b9150610ab282610a4b565b604082019050919050565b60006020820190508181036000830152610ad681610a9a565b9050919050565b610ae681610950565b82525050565b6000819050919050565b6000610b11610b0c610b0784610890565b610aec565b610890565b9050919050565b6000610b2382610af6565b9050919050565b6000610b3582610b18565b9050919050565b610b4581610b2a565b82525050565b6000606082019050610b606000830186610add565b610b6d6020830185610866565b610b7a6040830184610b3c565b949350505050565b7f4576657279206163636f756e74206f6e6c792063616e2070617469636970617460008201527f65206f6e652074696d652e2e2e00000000000000000000000000000000000000602082015250565b6000610bde602d83610a3a565b9150610be982610b82565b604082019050919050565b60006020820190508181036000830152610c0d81610bd1565b9050919050565b7f6d73672e76616c7565206e656564206c61726765207468616e207a65726f2e2e60008201527f2e00000000000000000000000000000000000000000000000000000000000000602082015250565b6000610c70602183610a3a565b9150610c7b82610c14565b604082019050919050565b60006020820190508181036000830152610c9f81610c63565b9050919050565b7f696e7661696c642063726f776446756e64696e672069642e2e2e000000000000600082015250565b6000610cdc601a83610a3a565b9150610ce782610ca6565b602082019050919050565b60006020820190508181036000830152610d0b81610ccf565b9050919050565b7f4e487b7100000000000000000000000000000000000000000000000000000000600052601160045260246000fd5b6000610d4c826107cd565b91507fffffffffffffffffffffffffffffffffffffffffffffffffffffffffffffffff8203610d7e57610d7d610d12565b5b600182019050919050565b6000610d94826107cd565b9150610d9f836107cd565b9250828201905080821115610db757610db6610d12565b5b92915050565b6000604082019050610dd26000830185610add565b610ddf6020830184610866565b9392505050565b6000606082019050610dfb6000830186610add565b610e086020830185610b3c565b610e156040830184610866565b94935050505056fea2646970667358221220a98d49ed1fce9d37b3b9651f002aa7c002d1a0d74aceeb2a6b9bb8b89434192a64736f6c63430008120033",
  "devdoc": {
    "kind": "dev",
    "methods": {},
    "version": 1
  },
  "userdoc": {
    "kind": "user",
    "methods": {},
    "version": 1
  },
  "storageLayout": {
    "storage": [
      {
        "astId": 17,
        "contract": "contracts/CrowdFunding.sol:CrowdFunding",
        "label": "s_CrowdFundId",
        "offset": 0,
        "slot": "0",
        "type": "t_uint256"
      },
      {
        "astId": 22,
        "contract": "contracts/CrowdFunding.sol:CrowdFunding",
        "label": "s_CrowdFundMap",
        "offset": 0,
        "slot": "1",
        "type": "t_mapping(t_uint256,t_struct(CrowdFund)10_storage)"
      },
      {
        "astId": 28,
        "contract": "contracts/CrowdFunding.sol:CrowdFunding",
        "label": "s_FundersMap",
        "offset": 0,
        "slot": "2",
        "type": "t_mapping(t_uint256,t_array(t_struct(Funder)15_storage)dyn_storage)"
      },
      {
        "astId": 34,
        "contract": "contracts/CrowdFunding.sol:CrowdFunding",
        "label": "s_IsParticipate",
        "offset": 0,
        "slot": "3",
        "type": "t_mapping(t_uint256,t_mapping(t_address,t_bool))"
      }
    ],
    "types": {
      "t_address": {
        "encoding": "inplace",
        "label": "address",
        "numberOfBytes": "20"
      },
      "t_address_payable": {
        "encoding": "inplace",
        "label": "address payable",
        "numberOfBytes": "20"
      },
      "t_array(t_struct(Funder)15_storage)dyn_storage": {
        "base": "t_struct(Funder)15_storage",
        "encoding": "dynamic_array",
        "label": "struct CrowdFunding.Funder[]",
        "numberOfBytes": "32"
      },
      "t_bool": {
        "encoding": "inplace",
        "label": "bool",
        "numberOfBytes": "1"
      },
      "t_mapping(t_address,t_bool)": {
        "encoding": "mapping",
        "key": "t_address",
        "label": "mapping(address => bool)",
        "numberOfBytes": "32",
        "value": "t_bool"
      },
      "t_mapping(t_uint256,t_array(t_struct(Funder)15_storage)dyn_storage)": {
        "encoding": "mapping",
        "key": "t_uint256",
        "label": "mapping(uint256 => struct CrowdFunding.Funder[])",
        "numberOfBytes": "32",
        "value": "t_array(t_struct(Funder)15_storage)dyn_storage"
      },
      "t_mapping(t_uint256,t_mapping(t_address,t_bool))": {
        "encoding": "mapping",
        "key": "t_uint256",
        "label": "mapping(uint256 => mapping(address => bool))",
        "numberOfBytes": "32",
        "value": "t_mapping(t_address,t_bool)"
      },
      "t_mapping(t_uint256,t_struct(CrowdFund)10_storage)": {
        "encoding": "mapping",
        "key": "t_uint256",
        "label": "mapping(uint256 => struct CrowdFunding.CrowdFund)",
        "numberOfBytes": "32",
        "value": "t_struct(CrowdFund)10_storage"
      },
      "t_struct(CrowdFund)10_storage": {
        "encoding": "inplace",
        "label": "struct CrowdFunding.CrowdFund",
        "members": [
          {
            "astId": 3,
            "contract": "contracts/CrowdFunding.sol:CrowdFunding",
            "label": "receiver",
            "offset": 0,
            "slot": "0",
            "type": "t_address_payable"
          },
          {
            "astId": 5,
            "contract": "contracts/CrowdFunding.sol:CrowdFunding",
            "label": "fundingGoal",
            "offset": 0,
            "slot": "1",
            "type": "t_uint256"
          },
          {
            "astId": 7,
            "contract": "contracts/CrowdFunding.sol:CrowdFunding",
            "label": "fundNumers",
            "offset": 0,
            "slot": "2",
            "type": "t_uint256"
          },
          {
            "astId": 9,
            "contract": "contracts/CrowdFunding.sol:CrowdFunding",
            "label": "totalAmounts",
            "offset": 0,
            "slot": "3",
            "type": "t_uint256"
          }
        ],
        "numberOfBytes": "128"
      },
      "t_struct(Funder)15_storage": {
        "encoding": "inplace",
        "label": "struct CrowdFunding.Funder",
        "members": [
          {
            "astId": 12,
            "contract": "contracts/CrowdFunding.sol:CrowdFunding",
            "label": "addr",
            "offset": 0,
            "slot": "0",
            "type": "t_address"
          },
          {
            "astId": 14,
            "contract": "contracts/CrowdFunding.sol:CrowdFunding",
            "label": "amount",
            "offset": 0,
            "slot": "1",
            "type": "t_uint256"
          }
        ],
        "numberOfBytes": "64"
      },
      "t_uint256": {
        "encoding": "inplace",
        "label": "uint256",
        "numberOfBytes": "32"
      }
    }
  }
}